{
  "_format": "hh-sol-artifact-1",
  "contractName": "GameNFT",
  "sourceName": "contracts/GameNFT.sol",
  "abi": [
    {
      "inputs": [
        {
          "internalType": "string",
          "name": "name",
          "type": "string"
        },
        {
          "internalType": "string",
          "name": "symbol",
          "type": "string"
        },
        {
          "internalType": "string",
          "name": "baseURI_",
          "type": "string"
        }
      ],
      "stateMutability": "nonpayable",
      "type": "constructor"
    },
    {
      "inputs": [
        {
          "internalType": "address",
          "name": "sender",
          "type": "address"
        },
        {
          "internalType": "uint256",
          "name": "tokenId",
          "type": "uint256"
        },
        {
          "internalType": "address",
          "name": "owner",
          "type": "address"
        }
      ],
      "name": "ERC721IncorrectOwner",
      "type": "error"
    },
    {
      "inputs": [
        {
          "internalType": "address",
          "name": "operator",
          "type": "address"
        },
        {
          "internalType": "uint256",
          "name": "tokenId",
          "type": "uint256"
        }
      ],
      "name": "ERC721InsufficientApproval",
      "type": "error"
    },
    {
      "inputs": [
        {
          "internalType": "address",
          "name": "approver",
          "type": "address"
        }
      ],
      "name": "ERC721InvalidApprover",
      "type": "error"
    },
    {
      "inputs": [
        {
          "internalType": "address",
          "name": "operator",
          "type": "address"
        }
      ],
      "name": "ERC721InvalidOperator",
      "type": "error"
    },
    {
      "inputs": [
        {
          "internalType": "address",
          "name": "owner",
          "type": "address"
        }
      ],
      "name": "ERC721InvalidOwner",
      "type": "error"
    },
    {
      "inputs": [
        {
          "internalType": "address",
          "name": "receiver",
          "type": "address"
        }
      ],
      "name": "ERC721InvalidReceiver",
      "type": "error"
    },
    {
      "inputs": [
        {
          "internalType": "address",
          "name": "sender",
          "type": "address"
        }
      ],
      "name": "ERC721InvalidSender",
      "type": "error"
    },
    {
      "inputs": [
        {
          "internalType": "uint256",
          "name": "tokenId",
          "type": "uint256"
        }
      ],
      "name": "ERC721NonexistentToken",
      "type": "error"
    },
    {
      "inputs": [
        {
          "internalType": "address",
          "name": "owner",
          "type": "address"
        }
      ],
      "name": "OwnableInvalidOwner",
      "type": "error"
    },
    {
      "inputs": [
        {
          "internalType": "address",
          "name": "account",
          "type": "address"
        }
      ],
      "name": "OwnableUnauthorizedAccount",
      "type": "error"
    },
    {
      "inputs": [],
      "name": "ReentrancyGuardReentrantCall",
      "type": "error"
    },
    {
      "anonymous": false,
      "inputs": [
        {
          "indexed": true,
          "internalType": "address",
          "name": "owner",
          "type": "address"
        },
        {
          "indexed": true,
          "internalType": "address",
          "name": "approved",
          "type": "address"
        },
        {
          "indexed": true,
          "internalType": "uint256",
          "name": "tokenId",
          "type": "uint256"
        }
      ],
      "name": "Approval",
      "type": "event"
    },
    {
      "anonymous": false,
      "inputs": [
        {
          "indexed": true,
          "internalType": "address",
          "name": "owner",
          "type": "address"
        },
        {
          "indexed": true,
          "internalType": "address",
          "name": "operator",
          "type": "address"
        },
        {
          "indexed": false,
          "internalType": "bool",
          "name": "approved",
          "type": "bool"
        }
      ],
      "name": "ApprovalForAll",
      "type": "event"
    },
    {
      "anonymous": false,
      "inputs": [
        {
          "indexed": false,
          "internalType": "uint256",
          "name": "_fromTokenId",
          "type": "uint256"
        },
        {
          "indexed": false,
          "internalType": "uint256",
          "name": "_toTokenId",
          "type": "uint256"
        }
      ],
      "name": "BatchMetadataUpdate",
      "type": "event"
    },
    {
      "anonymous": false,
      "inputs": [
        {
          "indexed": false,
          "internalType": "uint256",
          "name": "_tokenId",
          "type": "uint256"
        }
      ],
      "name": "MetadataUpdate",
      "type": "event"
    },
    {
      "anonymous": false,
      "inputs": [
        {
          "indexed": true,
          "internalType": "uint256",
          "name": "tokenId",
          "type": "uint256"
        },
        {
          "indexed": false,
          "internalType": "uint256",
          "name": "price",
          "type": "uint256"
        },
        {
          "indexed": true,
          "internalType": "address",
          "name": "seller",
          "type": "address"
        }
      ],
      "name": "NFTListedForSale",
      "type": "event"
    },
    {
      "anonymous": false,
      "inputs": [
        {
          "indexed": true,
          "internalType": "address",
          "name": "to",
          "type": "address"
        },
        {
          "indexed": true,
          "internalType": "uint256",
          "name": "tokenId",
          "type": "uint256"
        },
        {
          "indexed": false,
          "internalType": "string",
          "name": "tokenURI",
          "type": "string"
        }
      ],
      "name": "NFTMinted",
      "type": "event"
    },
    {
      "anonymous": false,
      "inputs": [
        {
          "indexed": true,
          "internalType": "uint256",
          "name": "tokenId",
          "type": "uint256"
        },
        {
          "indexed": false,
          "internalType": "uint256",
          "name": "newPrice",
          "type": "uint256"
        }
      ],
      "name": "NFTPriceUpdated",
      "type": "event"
    },
    {
      "anonymous": false,
      "inputs": [
        {
          "indexed": true,
          "internalType": "uint256",
          "name": "tokenId",
          "type": "uint256"
        },
        {
          "indexed": true,
          "internalType": "address",
          "name": "owner",
          "type": "address"
        }
      ],
      "name": "NFTRemovedFromSale",
      "type": "event"
    },
    {
      "anonymous": false,
      "inputs": [
        {
          "indexed": true,
          "internalType": "uint256",
          "name": "tokenId",
          "type": "uint256"
        },
        {
          "indexed": true,
          "internalType": "address",
          "name": "seller",
          "type": "address"
        },
        {
          "indexed": true,
          "internalType": "address",
          "name": "buyer",
          "type": "address"
        },
        {
          "indexed": false,
          "internalType": "uint256",
          "name": "price",
          "type": "uint256"
        }
      ],
      "name": "NFTSold",
      "type": "event"
    },
    {
      "anonymous": false,
      "inputs": [
        {
          "indexed": true,
          "internalType": "address",
          "name": "previousOwner",
          "type": "address"
        },
        {
          "indexed": true,
          "internalType": "address",
          "name": "newOwner",
          "type": "address"
        }
      ],
      "name": "OwnershipTransferred",
      "type": "event"
    },
    {
      "anonymous": false,
      "inputs": [
        {
          "indexed": true,
          "internalType": "address",
          "name": "from",
          "type": "address"
        },
        {
          "indexed": true,
          "internalType": "address",
          "name": "to",
          "type": "address"
        },
        {
          "indexed": true,
          "internalType": "uint256",
          "name": "tokenId",
          "type": "uint256"
        }
      ],
      "name": "Transfer",
      "type": "event"
    },
    {
      "inputs": [
        {
          "internalType": "address",
          "name": "to",
          "type": "address"
        },
        {
          "internalType": "uint256",
          "name": "tokenId",
          "type": "uint256"
        }
      ],
      "name": "approve",
      "outputs": [],
      "stateMutability": "nonpayable",
      "type": "function"
    },
    {
      "inputs": [
        {
          "internalType": "address",
          "name": "owner",
          "type": "address"
        }
      ],
      "name": "balanceOf",
      "outputs": [
        {
          "internalType": "uint256",
          "name": "",
          "type": "uint256"
        }
      ],
      "stateMutability": "view",
      "type": "function"
    },
    {
      "inputs": [],
      "name": "baseURI",
      "outputs": [
        {
          "internalType": "string",
          "name": "",
          "type": "string"
        }
      ],
      "stateMutability": "view",
      "type": "function"
    },
    {
      "inputs": [
        {
          "internalType": "address",
          "name": "to",
          "type": "address"
        },
        {
          "internalType": "string[]",
          "name": "tokenURIs_",
          "type": "string[]"
        }
      ],
      "name": "batchMint",
      "outputs": [
        {
          "internalType": "uint256[]",
          "name": "",
          "type": "uint256[]"
        }
      ],
      "stateMutability": "nonpayable",
      "type": "function"
    },
    {
      "inputs": [
        {
          "internalType": "uint256",
          "name": "tokenId",
          "type": "uint256"
        }
      ],
      "name": "buyNFT",
      "outputs": [],
      "stateMutability": "payable",
      "type": "function"
    },
    {
      "inputs": [],
      "name": "getAllNFTsForSale",
      "outputs": [
        {
          "internalType": "uint256[]",
          "name": "",
          "type": "uint256[]"
        },
        {
          "internalType": "uint256[]",
          "name": "",
          "type": "uint256[]"
        }
      ],
      "stateMutability": "view",
      "type": "function"
    },
    {
      "inputs": [
        {
          "internalType": "uint256",
          "name": "tokenId",
          "type": "uint256"
        }
      ],
      "name": "getApproved",
      "outputs": [
        {
          "internalType": "address",
          "name": "",
          "type": "address"
        }
      ],
      "stateMutability": "view",
      "type": "function"
    },
    {
      "inputs": [
        {
          "internalType": "uint256",
          "name": "tokenId",
          "type": "uint256"
        }
      ],
      "name": "getNFTPrice",
      "outputs": [
        {
          "internalType": "uint256",
          "name": "",
          "type": "uint256"
        }
      ],
      "stateMutability": "view",
      "type": "function"
    },
    {
      "inputs": [
        {
          "internalType": "address",
          "name": "owner",
          "type": "address"
        },
        {
          "internalType": "address",
          "name": "operator",
          "type": "address"
        }
      ],
      "name": "isApprovedForAll",
      "outputs": [
        {
          "internalType": "bool",
          "name": "",
          "type": "bool"
        }
      ],
      "stateMutability": "view",
      "type": "function"
    },
    {
      "inputs": [
        {
          "internalType": "uint256",
          "name": "tokenId",
          "type": "uint256"
        }
      ],
      "name": "isNFTForSale",
      "outputs": [
        {
          "internalType": "bool",
          "name": "",
          "type": "bool"
        }
      ],
      "stateMutability": "view",
      "type": "function"
    },
    {
      "inputs": [
        {
          "internalType": "uint256",
          "name": "tokenId",
          "type": "uint256"
        },
        {
          "internalType": "uint256",
          "name": "price",
          "type": "uint256"
        }
      ],
      "name": "listForSale",
      "outputs": [],
      "stateMutability": "nonpayable",
      "type": "function"
    },
    {
      "inputs": [
        {
          "internalType": "address",
          "name": "to",
          "type": "address"
        },
        {
          "internalType": "string",
          "name": "tokenURI_",
          "type": "string"
        }
      ],
      "name": "mint",
      "outputs": [
        {
          "internalType": "uint256",
          "name": "",
          "type": "uint256"
        }
      ],
      "stateMutability": "nonpayable",
      "type": "function"
    },
    {
      "inputs": [],
      "name": "name",
      "outputs": [
        {
          "internalType": "string",
          "name": "",
          "type": "string"
        }
      ],
      "stateMutability": "view",
      "type": "function"
    },
    {
      "inputs": [],
      "name": "nextTokenId",
      "outputs": [
        {
          "internalType": "uint256",
          "name": "",
          "type": "uint256"
        }
      ],
      "stateMutability": "view",
      "type": "function"
    },
    {
      "inputs": [],
      "name": "owner",
      "outputs": [
        {
          "internalType": "address",
          "name": "",
          "type": "address"
        }
      ],
      "stateMutability": "view",
      "type": "function"
    },
    {
      "inputs": [
        {
          "internalType": "uint256",
          "name": "tokenId",
          "type": "uint256"
        }
      ],
      "name": "ownerOf",
      "outputs": [
        {
          "internalType": "address",
          "name": "",
          "type": "address"
        }
      ],
      "stateMutability": "view",
      "type": "function"
    },
    {
      "inputs": [
        {
          "internalType": "uint256",
          "name": "tokenId",
          "type": "uint256"
        }
      ],
      "name": "removeFromSale",
      "outputs": [],
      "stateMutability": "nonpayable",
      "type": "function"
    },
    {
      "inputs": [],
      "name": "renounceOwnership",
      "outputs": [],
      "stateMutability": "nonpayable",
      "type": "function"
    },
    {
      "inputs": [
        {
          "internalType": "address",
          "name": "from",
          "type": "address"
        },
        {
          "internalType": "address",
          "name": "to",
          "type": "address"
        },
        {
          "internalType": "uint256",
          "name": "tokenId",
          "type": "uint256"
        }
      ],
      "name": "safeTransferFrom",
      "outputs": [],
      "stateMutability": "nonpayable",
      "type": "function"
    },
    {
      "inputs": [
        {
          "internalType": "address",
          "name": "from",
          "type": "address"
        },
        {
          "internalType": "address",
          "name": "to",
          "type": "address"
        },
        {
          "internalType": "uint256",
          "name": "tokenId",
          "type": "uint256"
        },
        {
          "internalType": "bytes",
          "name": "data",
          "type": "bytes"
        }
      ],
      "name": "safeTransferFrom",
      "outputs": [],
      "stateMutability": "nonpayable",
      "type": "function"
    },
    {
      "inputs": [
        {
          "internalType": "address",
          "name": "operator",
          "type": "address"
        },
        {
          "internalType": "bool",
          "name": "approved",
          "type": "bool"
        }
      ],
      "name": "setApprovalForAll",
      "outputs": [],
      "stateMutability": "nonpayable",
      "type": "function"
    },
    {
      "inputs": [
        {
          "internalType": "string",
          "name": "newBaseURI",
          "type": "string"
        }
      ],
      "name": "setBaseURI",
      "outputs": [],
      "stateMutability": "nonpayable",
      "type": "function"
    },
    {
      "inputs": [
        {
          "internalType": "bytes4",
          "name": "interfaceId",
          "type": "bytes4"
        }
      ],
      "name": "supportsInterface",
      "outputs": [
        {
          "internalType": "bool",
          "name": "",
          "type": "bool"
        }
      ],
      "stateMutability": "view",
      "type": "function"
    },
    {
      "inputs": [],
      "name": "symbol",
      "outputs": [
        {
          "internalType": "string",
          "name": "",
          "type": "string"
        }
      ],
      "stateMutability": "view",
      "type": "function"
    },
    {
      "inputs": [
        {
          "internalType": "uint256",
          "name": "tokenId",
          "type": "uint256"
        }
      ],
      "name": "tokenURI",
      "outputs": [
        {
          "internalType": "string",
          "name": "",
          "type": "string"
        }
      ],
      "stateMutability": "view",
      "type": "function"
    },
    {
      "inputs": [],
      "name": "totalSupply",
      "outputs": [
        {
          "internalType": "uint256",
          "name": "",
          "type": "uint256"
        }
      ],
      "stateMutability": "view",
      "type": "function"
    },
    {
      "inputs": [
        {
          "internalType": "address",
          "name": "from",
          "type": "address"
        },
        {
          "internalType": "address",
          "name": "to",
          "type": "address"
        },
        {
          "internalType": "uint256",
          "name": "tokenId",
          "type": "uint256"
        }
      ],
      "name": "transferFrom",
      "outputs": [],
      "stateMutability": "nonpayable",
      "type": "function"
    },
    {
      "inputs": [
        {
          "internalType": "address",
          "name": "newOwner",
          "type": "address"
        }
      ],
      "name": "transferOwnership",
      "outputs": [],
      "stateMutability": "nonpayable",
      "type": "function"
    },
    {
      "inputs": [
        {
          "internalType": "uint256",
          "name": "tokenId",
          "type": "uint256"
        },
        {
          "internalType": "uint256",
          "name": "newPrice",
          "type": "uint256"
        }
      ],
      "name": "updatePrice",
      "outputs": [],
      "stateMutability": "nonpayable",
      "type": "function"
    },
    {
      "inputs": [],
      "name": "withdraw",
      "outputs": [],
      "stateMutability": "nonpayable",
      "type": "function"
    },
    {
      "stateMutability": "payable",
      "type": "receive"
    }
  ],
  "bytecode": "0x60806040523480156200001157600080fd5b506040516200496f3803806200496f833981810160405281019062000037919062000363565b33838381600090816200004b919062000667565b5080600190816200005d919062000667565b505050600073ffffffffffffffffffffffffffffffffffffffff168173ffffffffffffffffffffffffffffffffffffffff1603620000d55760006040517f1e4fbdf7000000000000000000000000000000000000000000000000000000008152600401620000cc919062000793565b60405180910390fd5b620000e6816200010a60201b60201c565b50600160088190555080600a908162000100919062000667565b50505050620007b0565b6000600760009054906101000a900473ffffffffffffffffffffffffffffffffffffffff16905081600760006101000a81548173ffffffffffffffffffffffffffffffffffffffff021916908373ffffffffffffffffffffffffffffffffffffffff1602179055508173ffffffffffffffffffffffffffffffffffffffff168173ffffffffffffffffffffffffffffffffffffffff167f8be0079c531659141344cd1fd0a4f28419497f9722a3daafe3b4186f6b6457e060405160405180910390a35050565b6000604051905090565b600080fd5b600080fd5b600080fd5b600080fd5b6000601f19601f8301169050919050565b7f4e487b7100000000000000000000000000000000000000000000000000000000600052604160045260246000fd5b6200023982620001ee565b810181811067ffffffffffffffff821117156200025b576200025a620001ff565b5b80604052505050565b600062000270620001d0565b90506200027e82826200022e565b919050565b600067ffffffffffffffff821115620002a157620002a0620001ff565b5b620002ac82620001ee565b9050602081019050919050565b60005b83811015620002d9578082015181840152602081019050620002bc565b60008484015250505050565b6000620002fc620002f68462000283565b62000264565b9050828152602081018484840111156200031b576200031a620001e9565b5b62000328848285620002b9565b509392505050565b600082601f830112620003485762000347620001e4565b5b81516200035a848260208601620002e5565b91505092915050565b6000806000606084860312156200037f576200037e620001da565b5b600084015167ffffffffffffffff811115620003a0576200039f620001df565b5b620003ae8682870162000330565b935050602084015167ffffffffffffffff811115620003d257620003d1620001df565b5b620003e08682870162000330565b925050604084015167ffffffffffffffff811115620004045762000403620001df565b5b620004128682870162000330565b9150509250925092565b600081519050919050565b7f4e487b7100000000000000000000000000000000000000000000000000000000600052602260045260246000fd5b600060028204905060018216806200046f57607f821691505b60208210810362000485576200048462000427565b5b50919050565b60008190508160005260206000209050919050565b60006020601f8301049050919050565b600082821b905092915050565b600060088302620004ef7fffffffffffffffffffffffffffffffffffffffffffffffffffffffffffffffff82620004b0565b620004fb8683620004b0565b95508019841693508086168417925050509392505050565b6000819050919050565b6000819050919050565b600062000548620005426200053c8462000513565b6200051d565b62000513565b9050919050565b6000819050919050565b620005648362000527565b6200057c62000573826200054f565b848454620004bd565b825550505050565b600090565b6200059362000584565b620005a081848462000559565b505050565b5b81811015620005c857620005bc60008262000589565b600181019050620005a6565b5050565b601f8211156200061757620005e1816200048b565b620005ec84620004a0565b81016020851015620005fc578190505b620006146200060b85620004a0565b830182620005a5565b50505b505050565b600082821c905092915050565b60006200063c600019846008026200061c565b1980831691505092915050565b600062000657838362000629565b9150826002028217905092915050565b62000672826200041c565b67ffffffffffffffff8111156200068e576200068d620001ff565b5b6200069a825462000456565b620006a7828285620005cc565b600060209050601f831160018114620006df5760008415620006ca578287015190505b620006d6858262000649565b86555062000746565b601f198416620006ef866200048b565b60005b828110156200071957848901518255600182019150602085019450602081019050620006f2565b8683101562000739578489015162000735601f89168262000629565b8355505b6001600288020188555050505b505050505050565b600073ffffffffffffffffffffffffffffffffffffffff82169050919050565b60006200077b826200074e565b9050919050565b6200078d816200076e565b82525050565b6000602082019050620007aa600083018462000782565b92915050565b6141af80620007c06000396000f3fe6080604052600436106101d15760003560e01c8063715018a6116100f7578063b88d4fde11610095578063e80d7fec11610064578063e80d7fec14610685578063e985e9c5146106ae578063f2f18baa146106eb578063f2fde38b14610728576101d8565b8063b88d4fde146105b6578063c87b56dd146105df578063d0def5211461061c578063de58048c14610659576101d8565b80638da5cb5b116100d15780638da5cb5b146104fa578063929761791461052557806395d89b4114610562578063a22cb4651461058d576101d8565b8063715018a61461048f57806375794a3c146104a657806382367b2d146104d1576101d8565b806323b872dd1161016f57806355f804b31161013e57806355f804b3146103c15780636352211e146103ea5780636c0360eb1461042757806370a0823114610452576101d8565b806323b872dd1461033c5780633ccfd60b1461036557806342842e0e1461037c57806351ed8288146103a5576101d8565b8063095ea7b3116101ab578063095ea7b3146102825780631361a3b6146102ab57806318160ddd146102d45780631ce066c9146102ff576101d8565b806301ffc9a7146101dd57806306fdde031461021a578063081812fc14610245576101d8565b366101d857005b600080fd5b3480156101e957600080fd5b5061020460048036038101906101ff9190612f08565b610751565b6040516102119190612f50565b60405180910390f35b34801561022657600080fd5b5061022f610763565b60405161023c9190612ffb565b60405180910390f35b34801561025157600080fd5b5061026c60048036038101906102679190613053565b6107f5565b60405161027991906130c1565b60405180910390f35b34801561028e57600080fd5b506102a960048036038101906102a49190613108565b610811565b005b3480156102b757600080fd5b506102d260048036038101906102cd9190613053565b610827565b005b3480156102e057600080fd5b506102e9610a00565b6040516102f69190613157565b60405180910390f35b34801561030b57600080fd5b5061032660048036038101906103219190613053565b610a0a565b6040516103339190612f50565b60405180910390f35b34801561034857600080fd5b50610363600480360381019061035e9190613172565b610aaa565b005b34801561037157600080fd5b5061037a610bac565b005b34801561038857600080fd5b506103a3600480360381019061039e9190613172565b610c4d565b005b6103bf60048036038101906103ba9190613053565b610c6d565b005b3480156103cd57600080fd5b506103e860048036038101906103e391906132fa565b610fa2565b005b3480156103f657600080fd5b50610411600480360381019061040c9190613053565b610fbd565b60405161041e91906130c1565b60405180910390f35b34801561043357600080fd5b5061043c610fcf565b6040516104499190612ffb565b60405180910390f35b34801561045e57600080fd5b5061047960048036038101906104749190613343565b611061565b6040516104869190613157565b60405180910390f35b34801561049b57600080fd5b506104a461111b565b005b3480156104b257600080fd5b506104bb61112f565b6040516104c89190613157565b60405180910390f35b3480156104dd57600080fd5b506104f860048036038101906104f39190613370565b611145565b005b34801561050657600080fd5b5061050f611329565b60405161051c91906130c1565b60405180910390f35b34801561053157600080fd5b5061054c60048036038101906105479190613053565b611353565b6040516105599190613157565b60405180910390f35b34801561056e57600080fd5b506105776113e6565b6040516105849190612ffb565b60405180910390f35b34801561059957600080fd5b506105b460048036038101906105af91906133dc565b611478565b005b3480156105c257600080fd5b506105dd60048036038101906105d891906134bd565b61148e565b005b3480156105eb57600080fd5b5061060660048036038101906106019190613053565b6114b3565b6040516106139190612ffb565b60405180910390f35b34801561062857600080fd5b50610643600480360381019061063e9190613540565b6114c5565b6040516106509190613157565b60405180910390f35b34801561066557600080fd5b5061066e61155d565b60405161067c92919061365a565b60405180910390f35b34801561069157600080fd5b506106ac60048036038101906106a79190613370565b61170f565b005b3480156106ba57600080fd5b506106d560048036038101906106d09190613691565b61195d565b6040516106e29190612f50565b60405180910390f35b3480156106f757600080fd5b50610712600480360381019061070d91906137b7565b6119f1565b60405161071f9190613813565b60405180910390f35b34801561073457600080fd5b5061074f600480360381019061074a9190613343565b611ab6565b005b600061075c82611b3c565b9050919050565b60606000805461077290613864565b80601f016020809104026020016040519081016040528092919081815260200182805461079e90613864565b80156107eb5780601f106107c0576101008083540402835291602001916107eb565b820191906000526020600020905b8154815290600101906020018083116107ce57829003601f168201915b5050505050905090565b600061080082611b9d565b5061080a82611c25565b9050919050565b610823828261081e611c62565b611c6a565b5050565b600073ffffffffffffffffffffffffffffffffffffffff1661084882611c7c565b73ffffffffffffffffffffffffffffffffffffffff160361089e576040517f08c379a0000000000000000000000000000000000000000000000000000000008152600401610895906138e1565b60405180910390fd5b3373ffffffffffffffffffffffffffffffffffffffff166108be82610fbd565b73ffffffffffffffffffffffffffffffffffffffff1614610914576040517f08c379a000000000000000000000000000000000000000000000000000000000815260040161090b9061394d565b60405180910390fd5b600d600082815260200190815260200160002060009054906101000a900460ff16610974576040517f08c379a000000000000000000000000000000000000000000000000000000000815260040161096b906139b9565b60405180910390fd5b6000600d600083815260200190815260200160002060006101000a81548160ff0219169083151502179055506000600c6000838152602001908152602001600020819055503373ffffffffffffffffffffffffffffffffffffffff16817f89d3341582f1a2018162ee1736d945f6c039d321321dc12accaccb767dea7f1860405160405180910390a350565b6000600954905090565b60008073ffffffffffffffffffffffffffffffffffffffff16610a2c83611c7c565b73ffffffffffffffffffffffffffffffffffffffff1603610a82576040517f08c379a0000000000000000000000000000000000000000000000000000000008152600401610a79906138e1565b60405180910390fd5b600d600083815260200190815260200160002060009054906101000a900460ff169050919050565b600073ffffffffffffffffffffffffffffffffffffffff168273ffffffffffffffffffffffffffffffffffffffff1603610b1c5760006040517f64a0ae92000000000000000000000000000000000000000000000000000000008152600401610b1391906130c1565b60405180910390fd5b6000610b308383610b2b611c62565b611cb9565b90508373ffffffffffffffffffffffffffffffffffffffff168173ffffffffffffffffffffffffffffffffffffffff1614610ba6578382826040517f64283d7b000000000000000000000000000000000000000000000000000000008152600401610b9d939291906139d9565b60405180910390fd5b50505050565b610bb4611ed3565b600047905060008111610bfc576040517f08c379a0000000000000000000000000000000000000000000000000000000008152600401610bf390613a5c565b60405180910390fd5b610c04611329565b73ffffffffffffffffffffffffffffffffffffffff166108fc829081150290604051600060405180830381858888f19350505050158015610c49573d6000803e3d6000fd5b5050565b610c688383836040518060200160405280600081525061148e565b505050565b610c75611f5a565b600073ffffffffffffffffffffffffffffffffffffffff16610c9682611c7c565b73ffffffffffffffffffffffffffffffffffffffff1603610cec576040517f08c379a0000000000000000000000000000000000000000000000000000000008152600401610ce3906138e1565b60405180910390fd5b600d600082815260200190815260200160002060009054906101000a900460ff16610d4c576040517f08c379a0000000000000000000000000000000000000000000000000000000008152600401610d43906139b9565b60405180910390fd5b600c600082815260200190815260200160002054341015610da2576040517f08c379a0000000000000000000000000000000000000000000000000000000008152600401610d9990613ac8565b60405180910390fd5b3373ffffffffffffffffffffffffffffffffffffffff16610dc282610fbd565b73ffffffffffffffffffffffffffffffffffffffff1603610e18576040517f08c379a0000000000000000000000000000000000000000000000000000000008152600401610e0f90613b34565b60405180910390fd5b6000610e2382610fbd565b90506000600c6000848152602001908152602001600020549050610e48823385611fa0565b8173ffffffffffffffffffffffffffffffffffffffff166108fc829081150290604051600060405180830381858888f19350505050158015610e8e573d6000803e3d6000fd5b5080341115610eea573373ffffffffffffffffffffffffffffffffffffffff166108fc8234610ebd9190613b83565b9081150290604051600060405180830381858888f19350505050158015610ee8573d6000803e3d6000fd5b505b6000600d600085815260200190815260200160002060006101000a81548160ff0219169083151502179055506000600c6000858152602001908152602001600020819055503373ffffffffffffffffffffffffffffffffffffffff168273ffffffffffffffffffffffffffffffffffffffff16847f8562eb94748e30bb0071e932744ce902b460c683474fcb3bfd567ffa16b1afb284604051610f8d9190613157565b60405180910390a45050610f9f61210d565b50565b610faa611ed3565b80600a9081610fb99190613d63565b5050565b6000610fc882611b9d565b9050919050565b6060600a8054610fde90613864565b80601f016020809104026020016040519081016040528092919081815260200182805461100a90613864565b80156110575780601f1061102c57610100808354040283529160200191611057565b820191906000526020600020905b81548152906001019060200180831161103a57829003601f168201915b5050505050905090565b60008073ffffffffffffffffffffffffffffffffffffffff168273ffffffffffffffffffffffffffffffffffffffff16036110d45760006040517f89c62b640000000000000000000000000000000000000000000000000000000081526004016110cb91906130c1565b60405180910390fd5b600360008373ffffffffffffffffffffffffffffffffffffffff1673ffffffffffffffffffffffffffffffffffffffff168152602001908152602001600020549050919050565b611123611ed3565b61112d6000612117565b565b600060016009546111409190613e35565b905090565b600073ffffffffffffffffffffffffffffffffffffffff1661116683611c7c565b73ffffffffffffffffffffffffffffffffffffffff16036111bc576040517f08c379a00000000000000000000000000000000000000000000000000000000081526004016111b3906138e1565b60405180910390fd5b3373ffffffffffffffffffffffffffffffffffffffff166111dc83610fbd565b73ffffffffffffffffffffffffffffffffffffffff1614611232576040517f08c379a00000000000000000000000000000000000000000000000000000000081526004016112299061394d565b60405180910390fd5b600d600083815260200190815260200160002060009054906101000a900460ff16611292576040517f08c379a0000000000000000000000000000000000000000000000000000000008152600401611289906139b9565b60405180910390fd5b600081116112d5576040517f08c379a00000000000000000000000000000000000000000000000000000000081526004016112cc90613eb5565b60405180910390fd5b80600c600084815260200190815260200160002081905550817f2847cfe8afe8bcd9ac540f0259739697ea019f65d44c8e76c8796b8ce52f7c318260405161131d9190613157565b60405180910390a25050565b6000600760009054906101000a900473ffffffffffffffffffffffffffffffffffffffff16905090565b60008073ffffffffffffffffffffffffffffffffffffffff1661137583611c7c565b73ffffffffffffffffffffffffffffffffffffffff16036113cb576040517f08c379a00000000000000000000000000000000000000000000000000000000081526004016113c2906138e1565b60405180910390fd5b600c6000838152602001908152602001600020549050919050565b6060600180546113f590613864565b80601f016020809104026020016040519081016040528092919081815260200182805461142190613864565b801561146e5780601f106114435761010080835404028352916020019161146e565b820191906000526020600020905b81548152906001019060200180831161145157829003601f168201915b5050505050905090565b61148a611483611c62565b83836121dd565b5050565b611499848484610aaa565b6114ad6114a4611c62565b8585858561234c565b50505050565b60606114be826124fd565b9050919050565b60006114cf611ed3565b6001600960008282546114e29190613e35565b92505081905550600060095490506114fa8482612610565b6115048184612709565b808473ffffffffffffffffffffffffffffffffffffffff167fd35bb95e09c04b219e35047ce7b7b300e3384264ef84a40456943dbc0fc17c148560405161154b9190612ffb565b60405180910390a38091505092915050565b606080600080600190505b60095481116115b957600d600082815260200190815260200160002060009054906101000a900460ff16156115a65781806115a290613ed5565b9250505b80806115b190613ed5565b915050611568565b5060008167ffffffffffffffff8111156115d6576115d56131cf565b5b6040519080825280602002602001820160405280156116045781602001602082028036833780820191505090505b50905060008267ffffffffffffffff811115611623576116226131cf565b5b6040519080825280602002602001820160405280156116515781602001602082028036833780820191505090505b509050600080600190505b600954811161170057600d600082815260200190815260200160002060009054906101000a900460ff16156116ed578084838151811061169f5761169e613f1d565b5b602002602001018181525050600c6000828152602001908152602001600020548383815181106116d2576116d1613f1d565b5b60200260200101818152505081806116e990613ed5565b9250505b80806116f890613ed5565b91505061165c565b50828295509550505050509091565b600073ffffffffffffffffffffffffffffffffffffffff1661173083611c7c565b73ffffffffffffffffffffffffffffffffffffffff1603611786576040517f08c379a000000000000000000000000000000000000000000000000000000000815260040161177d906138e1565b60405180910390fd5b3373ffffffffffffffffffffffffffffffffffffffff166117a683610fbd565b73ffffffffffffffffffffffffffffffffffffffff16146117fc576040517f08c379a00000000000000000000000000000000000000000000000000000000081526004016117f39061394d565b60405180910390fd5b6000811161183f576040517f08c379a000000000000000000000000000000000000000000000000000000000815260040161183690613eb5565b60405180910390fd5b3073ffffffffffffffffffffffffffffffffffffffff1661185f836107f5565b73ffffffffffffffffffffffffffffffffffffffff1614806118875750611886333061195d565b5b6118c6576040517f08c379a00000000000000000000000000000000000000000000000000000000081526004016118bd90613fbe565b60405180910390fd5b80600c6000848152602001908152602001600020819055506001600d600084815260200190815260200160002060006101000a81548160ff0219169083151502179055503373ffffffffffffffffffffffffffffffffffffffff16827ff78e8b672552c30bd4dc6a4d47324c771c972cde77a97fe66da1c8d7adbdbd16836040516119519190613157565b60405180910390a35050565b6000600560008473ffffffffffffffffffffffffffffffffffffffff1673ffffffffffffffffffffffffffffffffffffffff16815260200190815260200160002060008373ffffffffffffffffffffffffffffffffffffffff1673ffffffffffffffffffffffffffffffffffffffff16815260200190815260200160002060009054906101000a900460ff16905092915050565b60606119fb611ed3565b6000825167ffffffffffffffff811115611a1857611a176131cf565b5b604051908082528060200260200182016040528015611a465781602001602082028036833780820191505090505b50905060005b8351811015611aab57611a7985858381518110611a6c57611a6b613f1d565b5b60200260200101516114c5565b828281518110611a8c57611a8b613f1d565b5b6020026020010181815250508080611aa390613ed5565b915050611a4c565b508091505092915050565b611abe611ed3565b600073ffffffffffffffffffffffffffffffffffffffff168173ffffffffffffffffffffffffffffffffffffffff1603611b305760006040517f1e4fbdf7000000000000000000000000000000000000000000000000000000008152600401611b2791906130c1565b60405180910390fd5b611b3981612117565b50565b6000634906490660e01b7bffffffffffffffffffffffffffffffffffffffffffffffffffffffff1916827bffffffffffffffffffffffffffffffffffffffffffffffffffffffff19161480611b965750611b9582612765565b5b9050919050565b600080611ba983611c7c565b9050600073ffffffffffffffffffffffffffffffffffffffff168173ffffffffffffffffffffffffffffffffffffffff1603611c1c57826040517f7e273289000000000000000000000000000000000000000000000000000000008152600401611c139190613157565b60405180910390fd5b80915050919050565b60006004600083815260200190815260200160002060009054906101000a900473ffffffffffffffffffffffffffffffffffffffff169050919050565b600033905090565b611c778383836001612847565b505050565b60006002600083815260200190815260200160002060009054906101000a900473ffffffffffffffffffffffffffffffffffffffff169050919050565b600080611cc584611c7c565b9050600073ffffffffffffffffffffffffffffffffffffffff168373ffffffffffffffffffffffffffffffffffffffff1614611d0757611d06818486612a0c565b5b600073ffffffffffffffffffffffffffffffffffffffff168173ffffffffffffffffffffffffffffffffffffffff1614611d9857611d49600085600080612847565b6001600360008373ffffffffffffffffffffffffffffffffffffffff1673ffffffffffffffffffffffffffffffffffffffff168152602001908152602001600020600082825403925050819055505b600073ffffffffffffffffffffffffffffffffffffffff168573ffffffffffffffffffffffffffffffffffffffff1614611e1b576001600360008773ffffffffffffffffffffffffffffffffffffffff1673ffffffffffffffffffffffffffffffffffffffff168152602001908152602001600020600082825401925050819055505b846002600086815260200190815260200160002060006101000a81548173ffffffffffffffffffffffffffffffffffffffff021916908373ffffffffffffffffffffffffffffffffffffffff160217905550838573ffffffffffffffffffffffffffffffffffffffff168273ffffffffffffffffffffffffffffffffffffffff167fddf252ad1be2c89b69c2b068fc378daa952ba7f163c4a11628f55a4df523b3ef60405160405180910390a4809150509392505050565b611edb611c62565b73ffffffffffffffffffffffffffffffffffffffff16611ef9611329565b73ffffffffffffffffffffffffffffffffffffffff1614611f5857611f1c611c62565b6040517f118cdaa7000000000000000000000000000000000000000000000000000000008152600401611f4f91906130c1565b60405180910390fd5b565b600260085403611f96576040517f3ee5aeb500000000000000000000000000000000000000000000000000000000815260040160405180910390fd5b6002600881905550565b600073ffffffffffffffffffffffffffffffffffffffff168273ffffffffffffffffffffffffffffffffffffffff16036120125760006040517f64a0ae9200000000000000000000000000000000000000000000000000000000815260040161200991906130c1565b60405180910390fd5b600061202083836000611cb9565b9050600073ffffffffffffffffffffffffffffffffffffffff168173ffffffffffffffffffffffffffffffffffffffff160361209357816040517f7e27328900000000000000000000000000000000000000000000000000000000815260040161208a9190613157565b60405180910390fd5b8373ffffffffffffffffffffffffffffffffffffffff168173ffffffffffffffffffffffffffffffffffffffff1614612107578382826040517f64283d7b0000000000000000000000000000000000000000000000000000000081526004016120fe939291906139d9565b60405180910390fd5b50505050565b6001600881905550565b6000600760009054906101000a900473ffffffffffffffffffffffffffffffffffffffff16905081600760006101000a81548173ffffffffffffffffffffffffffffffffffffffff021916908373ffffffffffffffffffffffffffffffffffffffff1602179055508173ffffffffffffffffffffffffffffffffffffffff168173ffffffffffffffffffffffffffffffffffffffff167f8be0079c531659141344cd1fd0a4f28419497f9722a3daafe3b4186f6b6457e060405160405180910390a35050565b600073ffffffffffffffffffffffffffffffffffffffff168273ffffffffffffffffffffffffffffffffffffffff160361224e57816040517f5b08ba1800000000000000000000000000000000000000000000000000000000815260040161224591906130c1565b60405180910390fd5b80600560008573ffffffffffffffffffffffffffffffffffffffff1673ffffffffffffffffffffffffffffffffffffffff16815260200190815260200160002060008473ffffffffffffffffffffffffffffffffffffffff1673ffffffffffffffffffffffffffffffffffffffff16815260200190815260200160002060006101000a81548160ff0219169083151502179055508173ffffffffffffffffffffffffffffffffffffffff168373ffffffffffffffffffffffffffffffffffffffff167f17307eab39ab6107e8899845ad3d59bd9653f200f220920489ca2b5937696c318360405161233f9190612f50565b60405180910390a3505050565b60008373ffffffffffffffffffffffffffffffffffffffff163b11156124f6578273ffffffffffffffffffffffffffffffffffffffff1663150b7a02868685856040518563ffffffff1660e01b81526004016123ab9493929190614033565b6020604051808303816000875af19250505080156123e757506040513d601f19601f820116820180604052508101906123e49190614094565b60015b61246b573d8060008114612417576040519150601f19603f3d011682016040523d82523d6000602084013e61241c565b606091505b50600081510361246357836040517f64a0ae9200000000000000000000000000000000000000000000000000000000815260040161245a91906130c1565b60405180910390fd5b805181602001fd5b63150b7a0260e01b7bffffffffffffffffffffffffffffffffffffffffffffffffffffffff1916817bffffffffffffffffffffffffffffffffffffffffffffffffffffffff1916146124f457836040517f64a0ae920000000000000000000000000000000000000000000000000000000081526004016124eb91906130c1565b60405180910390fd5b505b5050505050565b606061250882611b9d565b50600060066000848152602001908152602001600020805461252990613864565b80601f016020809104026020016040519081016040528092919081815260200182805461255590613864565b80156125a25780601f10612577576101008083540402835291602001916125a2565b820191906000526020600020905b81548152906001019060200180831161258557829003601f168201915b5050505050905060006125b3612ad0565b905060008151036125c857819250505061260b565b6000825111156125fd5780826040516020016125e59291906140fd565b6040516020818303038152906040529250505061260b565b61260684612ae7565b925050505b919050565b600073ffffffffffffffffffffffffffffffffffffffff168273ffffffffffffffffffffffffffffffffffffffff16036126825760006040517f64a0ae9200000000000000000000000000000000000000000000000000000000815260040161267991906130c1565b60405180910390fd5b600061269083836000611cb9565b9050600073ffffffffffffffffffffffffffffffffffffffff168173ffffffffffffffffffffffffffffffffffffffff16146127045760006040517f73c6ac6e0000000000000000000000000000000000000000000000000000000081526004016126fb91906130c1565b60405180910390fd5b505050565b806006600084815260200190815260200160002090816127299190613d63565b507ff8e1a15aba9398e019f0b49df1a4fde98ee17ae345cb5f6b5e2c27f5033e8ce7826040516127599190613157565b60405180910390a15050565b60007f80ac58cd000000000000000000000000000000000000000000000000000000007bffffffffffffffffffffffffffffffffffffffffffffffffffffffff1916827bffffffffffffffffffffffffffffffffffffffffffffffffffffffff1916148061283057507f5b5e139f000000000000000000000000000000000000000000000000000000007bffffffffffffffffffffffffffffffffffffffffffffffffffffffff1916827bffffffffffffffffffffffffffffffffffffffffffffffffffffffff1916145b80612840575061283f82612b50565b5b9050919050565b80806128805750600073ffffffffffffffffffffffffffffffffffffffff168273ffffffffffffffffffffffffffffffffffffffff1614155b156129b457600061289084611b9d565b9050600073ffffffffffffffffffffffffffffffffffffffff168373ffffffffffffffffffffffffffffffffffffffff16141580156128fb57508273ffffffffffffffffffffffffffffffffffffffff168173ffffffffffffffffffffffffffffffffffffffff1614155b801561290e575061290c818461195d565b155b1561295057826040517fa9fbf51f00000000000000000000000000000000000000000000000000000000815260040161294791906130c1565b60405180910390fd5b81156129b257838573ffffffffffffffffffffffffffffffffffffffff168273ffffffffffffffffffffffffffffffffffffffff167f8c5be1e5ebec7d5bd14f71427d1e84f3dd0314c0f7b2291e5b200ac8c7c3b92560405160405180910390a45b505b836004600085815260200190815260200160002060006101000a81548173ffffffffffffffffffffffffffffffffffffffff021916908373ffffffffffffffffffffffffffffffffffffffff16021790555050505050565b612a17838383612bba565b612acb57600073ffffffffffffffffffffffffffffffffffffffff168373ffffffffffffffffffffffffffffffffffffffff1603612a8c57806040517f7e273289000000000000000000000000000000000000000000000000000000008152600401612a839190613157565b60405180910390fd5b81816040517f177e802f000000000000000000000000000000000000000000000000000000008152600401612ac2929190614121565b60405180910390fd5b505050565b606060405180602001604052806000815250905090565b6060612af282611b9d565b506000612afd612ad0565b90506000815111612b1d5760405180602001604052806000815250612b48565b80612b2784612c7b565b604051602001612b389291906140fd565b6040516020818303038152906040525b915050919050565b60007f01ffc9a7000000000000000000000000000000000000000000000000000000007bffffffffffffffffffffffffffffffffffffffffffffffffffffffff1916827bffffffffffffffffffffffffffffffffffffffffffffffffffffffff1916149050919050565b60008073ffffffffffffffffffffffffffffffffffffffff168373ffffffffffffffffffffffffffffffffffffffff1614158015612c7257508273ffffffffffffffffffffffffffffffffffffffff168473ffffffffffffffffffffffffffffffffffffffff161480612c335750612c32848461195d565b5b80612c7157508273ffffffffffffffffffffffffffffffffffffffff16612c5983611c25565b73ffffffffffffffffffffffffffffffffffffffff16145b5b90509392505050565b606060006001612c8a84612d49565b01905060008167ffffffffffffffff811115612ca957612ca86131cf565b5b6040519080825280601f01601f191660200182016040528015612cdb5781602001600182028036833780820191505090505b509050600082602001820190505b600115612d3e578080600190039150507f3031323334353637383961626364656600000000000000000000000000000000600a86061a8153600a8581612d3257612d3161414a565b5b04945060008503612ce9575b819350505050919050565b600080600090507a184f03e93ff9f4daa797ed6e38ed64bf6a1f0100000000000000008310612da7577a184f03e93ff9f4daa797ed6e38ed64bf6a1f0100000000000000008381612d9d57612d9c61414a565b5b0492506040810190505b6d04ee2d6d415b85acef81000000008310612de4576d04ee2d6d415b85acef81000000008381612dda57612dd961414a565b5b0492506020810190505b662386f26fc100008310612e1357662386f26fc100008381612e0957612e0861414a565b5b0492506010810190505b6305f5e1008310612e3c576305f5e1008381612e3257612e3161414a565b5b0492506008810190505b6127108310612e61576127108381612e5757612e5661414a565b5b0492506004810190505b60648310612e845760648381612e7a57612e7961414a565b5b0492506002810190505b600a8310612e93576001810190505b80915050919050565b6000604051905090565b600080fd5b600080fd5b60007fffffffff0000000000000000000000000000000000000000000000000000000082169050919050565b612ee581612eb0565b8114612ef057600080fd5b50565b600081359050612f0281612edc565b92915050565b600060208284031215612f1e57612f1d612ea6565b5b6000612f2c84828501612ef3565b91505092915050565b60008115159050919050565b612f4a81612f35565b82525050565b6000602082019050612f656000830184612f41565b92915050565b600081519050919050565b600082825260208201905092915050565b60005b83811015612fa5578082015181840152602081019050612f8a565b60008484015250505050565b6000601f19601f8301169050919050565b6000612fcd82612f6b565b612fd78185612f76565b9350612fe7818560208601612f87565b612ff081612fb1565b840191505092915050565b600060208201905081810360008301526130158184612fc2565b905092915050565b6000819050919050565b6130308161301d565b811461303b57600080fd5b50565b60008135905061304d81613027565b92915050565b60006020828403121561306957613068612ea6565b5b60006130778482850161303e565b91505092915050565b600073ffffffffffffffffffffffffffffffffffffffff82169050919050565b60006130ab82613080565b9050919050565b6130bb816130a0565b82525050565b60006020820190506130d660008301846130b2565b92915050565b6130e5816130a0565b81146130f057600080fd5b50565b600081359050613102816130dc565b92915050565b6000806040838503121561311f5761311e612ea6565b5b600061312d858286016130f3565b925050602061313e8582860161303e565b9150509250929050565b6131518161301d565b82525050565b600060208201905061316c6000830184613148565b92915050565b60008060006060848603121561318b5761318a612ea6565b5b6000613199868287016130f3565b93505060206131aa868287016130f3565b92505060406131bb8682870161303e565b9150509250925092565b600080fd5b600080fd5b7f4e487b7100000000000000000000000000000000000000000000000000000000600052604160045260246000fd5b61320782612fb1565b810181811067ffffffffffffffff82111715613226576132256131cf565b5b80604052505050565b6000613239612e9c565b905061324582826131fe565b919050565b600067ffffffffffffffff821115613265576132646131cf565b5b61326e82612fb1565b9050602081019050919050565b82818337600083830152505050565b600061329d6132988461324a565b61322f565b9050828152602081018484840111156132b9576132b86131ca565b5b6132c484828561327b565b509392505050565b600082601f8301126132e1576132e06131c5565b5b81356132f184826020860161328a565b91505092915050565b6000602082840312156133105761330f612ea6565b5b600082013567ffffffffffffffff81111561332e5761332d612eab565b5b61333a848285016132cc565b91505092915050565b60006020828403121561335957613358612ea6565b5b6000613367848285016130f3565b91505092915050565b6000806040838503121561338757613386612ea6565b5b60006133958582860161303e565b92505060206133a68582860161303e565b9150509250929050565b6133b981612f35565b81146133c457600080fd5b50565b6000813590506133d6816133b0565b92915050565b600080604083850312156133f3576133f2612ea6565b5b6000613401858286016130f3565b9250506020613412858286016133c7565b9150509250929050565b600067ffffffffffffffff821115613437576134366131cf565b5b61344082612fb1565b9050602081019050919050565b600061346061345b8461341c565b61322f565b90508281526020810184848401111561347c5761347b6131ca565b5b61348784828561327b565b509392505050565b600082601f8301126134a4576134a36131c5565b5b81356134b484826020860161344d565b91505092915050565b600080600080608085870312156134d7576134d6612ea6565b5b60006134e5878288016130f3565b94505060206134f6878288016130f3565b93505060406135078782880161303e565b925050606085013567ffffffffffffffff81111561352857613527612eab565b5b6135348782880161348f565b91505092959194509250565b6000806040838503121561355757613556612ea6565b5b6000613565858286016130f3565b925050602083013567ffffffffffffffff81111561358657613585612eab565b5b613592858286016132cc565b9150509250929050565b600081519050919050565b600082825260208201905092915050565b6000819050602082019050919050565b6135d18161301d565b82525050565b60006135e383836135c8565b60208301905092915050565b6000602082019050919050565b60006136078261359c565b61361181856135a7565b935061361c836135b8565b8060005b8381101561364d57815161363488826135d7565b975061363f836135ef565b925050600181019050613620565b5085935050505092915050565b6000604082019050818103600083015261367481856135fc565b9050818103602083015261368881846135fc565b90509392505050565b600080604083850312156136a8576136a7612ea6565b5b60006136b6858286016130f3565b92505060206136c7858286016130f3565b9150509250929050565b600067ffffffffffffffff8211156136ec576136eb6131cf565b5b602082029050602081019050919050565b600080fd5b6000613715613710846136d1565b61322f565b90508083825260208201905060208402830185811115613738576137376136fd565b5b835b8181101561377f57803567ffffffffffffffff81111561375d5761375c6131c5565b5b80860161376a89826132cc565b8552602085019450505060208101905061373a565b5050509392505050565b600082601f83011261379e5761379d6131c5565b5b81356137ae848260208601613702565b91505092915050565b600080604083850312156137ce576137cd612ea6565b5b60006137dc858286016130f3565b925050602083013567ffffffffffffffff8111156137fd576137fc612eab565b5b61380985828601613789565b9150509250929050565b6000602082019050818103600083015261382d81846135fc565b905092915050565b7f4e487b7100000000000000000000000000000000000000000000000000000000600052602260045260246000fd5b6000600282049050600182168061387c57607f821691505b60208210810361388f5761388e613835565b5b50919050565b7f4e465420646f6573206e6f742065786973740000000000000000000000000000600082015250565b60006138cb601283612f76565b91506138d682613895565b602082019050919050565b600060208201905081810360008301526138fa816138be565b9050919050565b7f4e6f7420746865206f776e6572206f662074686973204e465400000000000000600082015250565b6000613937601983612f76565b915061394282613901565b602082019050919050565b600060208201905081810360008301526139668161392a565b9050919050565b7f4e4654206973206e6f7420666f722073616c6500000000000000000000000000600082015250565b60006139a3601383612f76565b91506139ae8261396d565b602082019050919050565b600060208201905081810360008301526139d281613996565b9050919050565b60006060820190506139ee60008301866130b2565b6139fb6020830185613148565b613a0860408301846130b2565b949350505050565b7f4e6f2062616c616e636520746f20776974686472617700000000000000000000600082015250565b6000613a46601683612f76565b9150613a5182613a10565b602082019050919050565b60006020820190508181036000830152613a7581613a39565b9050919050565b7f496e73756666696369656e74207061796d656e74000000000000000000000000600082015250565b6000613ab2601483612f76565b9150613abd82613a7c565b602082019050919050565b60006020820190508181036000830152613ae181613aa5565b9050919050565b7f43616e6e6f742062757920796f7572206f776e204e4654000000000000000000600082015250565b6000613b1e601783612f76565b9150613b2982613ae8565b602082019050919050565b60006020820190508181036000830152613b4d81613b11565b9050919050565b7f4e487b7100000000000000000000000000000000000000000000000000000000600052601160045260246000fd5b6000613b8e8261301d565b9150613b998361301d565b9250828203905081811115613bb157613bb0613b54565b5b92915050565b60008190508160005260206000209050919050565b60006020601f8301049050919050565b600082821b905092915050565b600060088302613c197fffffffffffffffffffffffffffffffffffffffffffffffffffffffffffffffff82613bdc565b613c238683613bdc565b95508019841693508086168417925050509392505050565b6000819050919050565b6000613c60613c5b613c568461301d565b613c3b565b61301d565b9050919050565b6000819050919050565b613c7a83613c45565b613c8e613c8682613c67565b848454613be9565b825550505050565b600090565b613ca3613c96565b613cae818484613c71565b505050565b5b81811015613cd257613cc7600082613c9b565b600181019050613cb4565b5050565b601f821115613d1757613ce881613bb7565b613cf184613bcc565b81016020851015613d00578190505b613d14613d0c85613bcc565b830182613cb3565b50505b505050565b600082821c905092915050565b6000613d3a60001984600802613d1c565b1980831691505092915050565b6000613d538383613d29565b9150826002028217905092915050565b613d6c82612f6b565b67ffffffffffffffff811115613d8557613d846131cf565b5b613d8f8254613864565b613d9a828285613cd6565b600060209050601f831160018114613dcd5760008415613dbb578287015190505b613dc58582613d47565b865550613e2d565b601f198416613ddb86613bb7565b60005b82811015613e0357848901518255600182019150602085019450602081019050613dde565b86831015613e205784890151613e1c601f891682613d29565b8355505b6001600288020188555050505b505050505050565b6000613e408261301d565b9150613e4b8361301d565b9250828201905080821115613e6357613e62613b54565b5b92915050565b7f5072696365206d7573742062652067726561746572207468616e203000000000600082015250565b6000613e9f601c83612f76565b9150613eaa82613e69565b602082019050919050565b60006020820190508181036000830152613ece81613e92565b9050919050565b6000613ee08261301d565b91507fffffffffffffffffffffffffffffffffffffffffffffffffffffffffffffffff8203613f1257613f11613b54565b5b600182019050919050565b7f4e487b7100000000000000000000000000000000000000000000000000000000600052603260045260246000fd5b7f436f6e7472616374206e6f7420617070726f76656420746f207472616e73666560008201527f72204e4654000000000000000000000000000000000000000000000000000000602082015250565b6000613fa8602583612f76565b9150613fb382613f4c565b604082019050919050565b60006020820190508181036000830152613fd781613f9b565b9050919050565b600081519050919050565b600082825260208201905092915050565b600061400582613fde565b61400f8185613fe9565b935061401f818560208601612f87565b61402881612fb1565b840191505092915050565b600060808201905061404860008301876130b2565b61405560208301866130b2565b6140626040830185613148565b81810360608301526140748184613ffa565b905095945050505050565b60008151905061408e81612edc565b92915050565b6000602082840312156140aa576140a9612ea6565b5b60006140b88482850161407f565b91505092915050565b600081905092915050565b60006140d782612f6b565b6140e181856140c1565b93506140f1818560208601612f87565b80840191505092915050565b600061410982856140cc565b915061411582846140cc565b91508190509392505050565b600060408201905061413660008301856130b2565b6141436020830184613148565b9392505050565b7f4e487b7100000000000000000000000000000000000000000000000000000000600052601260045260246000fdfea2646970667358221220df4583bab5cb6400745d04d26cc90968cf0a8d42c8cccdeced3a61daf1260f8e64736f6c63430008140033",
  "linkReferences": {},
  "deployedLinkReferences": {}
}